{
  "_format": "hh-sol-artifact-1",
  "contractName": "eToken",
  "sourceName": "contracts/eToken.sol",
  "abi": [
    {
      "inputs": [
        {
          "internalType": "address",
          "name": "_token",
          "type": "address"
        },
        {
          "internalType": "address",
          "name": "_strategy",
          "type": "address"
        },
        {
          "internalType": "string",
          "name": "_name",
          "type": "string"
        },
        {
          "internalType": "string",
          "name": "_symbol",
          "type": "string"
        },
        {
          "internalType": "address",
          "name": "_owner",
          "type": "address"
        }
      ],
      "payable": false,
      "stateMutability": "nonpayable",
      "type": "constructor"
    },
    {
      "anonymous": false,
      "inputs": [
        {
          "indexed": true,
          "internalType": "address",
          "name": "owner",
          "type": "address"
        },
        {
          "indexed": true,
          "internalType": "address",
          "name": "spender",
          "type": "address"
        },
        {
          "indexed": false,
          "internalType": "uint256",
          "name": "value",
          "type": "uint256"
        }
      ],
      "name": "Approval",
      "type": "event"
    },
    {
      "anonymous": false,
      "inputs": [
        {
          "indexed": true,
          "internalType": "address",
          "name": "from",
          "type": "address"
        },
        {
          "indexed": true,
          "internalType": "address",
          "name": "to",
          "type": "address"
        },
        {
          "indexed": false,
          "internalType": "uint256",
          "name": "value",
          "type": "uint256"
        }
      ],
      "name": "Transfer",
      "type": "event"
    },
    {
      "constant": true,
      "inputs": [
        {
          "internalType": "address",
          "name": "owner",
          "type": "address"
        },
        {
          "internalType": "address",
          "name": "spender",
          "type": "address"
        }
      ],
      "name": "allowance",
      "outputs": [
        {
          "internalType": "uint256",
          "name": "",
          "type": "uint256"
        }
      ],
      "payable": false,
      "stateMutability": "view",
      "type": "function"
    },
    {
      "constant": false,
      "inputs": [
        {
          "internalType": "address",
          "name": "spender",
          "type": "address"
        },
        {
          "internalType": "uint256",
          "name": "amount",
          "type": "uint256"
        }
      ],
      "name": "approve",
      "outputs": [
        {
          "internalType": "bool",
          "name": "",
          "type": "bool"
        }
      ],
      "payable": false,
      "stateMutability": "nonpayable",
      "type": "function"
    },
    {
      "constant": false,
      "inputs": [],
      "name": "approveStrategy",
      "outputs": [],
      "payable": false,
      "stateMutability": "nonpayable",
      "type": "function"
    },
    {
      "constant": true,
      "inputs": [
        {
          "internalType": "address",
          "name": "account",
          "type": "address"
        }
      ],
      "name": "balanceOf",
      "outputs": [
        {
          "internalType": "uint256",
          "name": "",
          "type": "uint256"
        }
      ],
      "payable": false,
      "stateMutability": "view",
      "type": "function"
    },
    {
      "constant": true,
      "inputs": [],
      "name": "decimals",
      "outputs": [
        {
          "internalType": "uint8",
          "name": "",
          "type": "uint8"
        }
      ],
      "payable": false,
      "stateMutability": "view",
      "type": "function"
    },
    {
      "constant": false,
      "inputs": [
        {
          "internalType": "address",
          "name": "spender",
          "type": "address"
        },
        {
          "internalType": "uint256",
          "name": "subtractedValue",
          "type": "uint256"
        }
      ],
      "name": "decreaseAllowance",
      "outputs": [
        {
          "internalType": "bool",
          "name": "",
          "type": "bool"
        }
      ],
      "payable": false,
      "stateMutability": "nonpayable",
      "type": "function"
    },
    {
      "constant": false,
      "inputs": [
        {
          "internalType": "uint256",
          "name": "_amount",
          "type": "uint256"
        }
      ],
      "name": "enter",
      "outputs": [],
      "payable": false,
      "stateMutability": "nonpayable",
      "type": "function"
    },
    {
      "constant": false,
      "inputs": [
        {
          "internalType": "address",
          "name": "_strategy",
          "type": "address"
        },
        {
          "internalType": "uint256",
          "name": "_amount",
          "type": "uint256"
        }
      ],
      "name": "enterStrategy",
      "outputs": [],
      "payable": false,
      "stateMutability": "nonpayable",
      "type": "function"
    },
    {
      "constant": false,
      "inputs": [
        {
          "internalType": "address",
          "name": "spender",
          "type": "address"
        },
        {
          "internalType": "uint256",
          "name": "addedValue",
          "type": "uint256"
        }
      ],
      "name": "increaseAllowance",
      "outputs": [
        {
          "internalType": "bool",
          "name": "",
          "type": "bool"
        }
      ],
      "payable": false,
      "stateMutability": "nonpayable",
      "type": "function"
    },
    {
      "constant": false,
      "inputs": [
        {
          "internalType": "uint256",
          "name": "_share",
          "type": "uint256"
        }
      ],
      "name": "leave",
      "outputs": [],
      "payable": false,
      "stateMutability": "nonpayable",
      "type": "function"
    },
    {
      "constant": false,
      "inputs": [
        {
          "internalType": "address",
          "name": "_strategy",
          "type": "address"
        },
        {
          "internalType": "uint256",
          "name": "_share",
          "type": "uint256"
        }
      ],
      "name": "leaveStrategy",
      "outputs": [],
      "payable": false,
      "stateMutability": "nonpayable",
      "type": "function"
    },
    {
      "constant": true,
      "inputs": [],
      "name": "name",
      "outputs": [
        {
          "internalType": "string",
          "name": "",
          "type": "string"
        }
      ],
      "payable": false,
      "stateMutability": "view",
      "type": "function"
    },
    {
      "constant": true,
      "inputs": [],
      "name": "owner",
      "outputs": [
        {
          "internalType": "address",
          "name": "",
          "type": "address"
        }
      ],
      "payable": false,
      "stateMutability": "view",
      "type": "function"
    },
    {
      "constant": false,
      "inputs": [],
      "name": "revokeStrategy",
      "outputs": [],
      "payable": false,
      "stateMutability": "nonpayable",
      "type": "function"
    },
    {
      "constant": false,
      "inputs": [
        {
          "internalType": "string",
          "name": "name",
          "type": "string"
        }
      ],
      "name": "setName",
      "outputs": [],
      "payable": false,
      "stateMutability": "nonpayable",
      "type": "function"
    },
    {
      "constant": false,
      "inputs": [
        {
          "internalType": "string",
          "name": "symbol",
          "type": "string"
        }
      ],
      "name": "setSymbol",
      "outputs": [],
      "payable": false,
      "stateMutability": "nonpayable",
      "type": "function"
    },
    {
      "constant": true,
      "inputs": [],
      "name": "strategy",
      "outputs": [
        {
          "internalType": "address",
          "name": "",
          "type": "address"
        }
      ],
      "payable": false,
      "stateMutability": "view",
      "type": "function"
    },
    {
      "constant": true,
      "inputs": [],
      "name": "symbol",
      "outputs": [
        {
          "internalType": "string",
          "name": "",
          "type": "string"
        }
      ],
      "payable": false,
      "stateMutability": "view",
      "type": "function"
    },
    {
      "constant": true,
      "inputs": [],
      "name": "token",
      "outputs": [
        {
          "internalType": "address",
          "name": "",
          "type": "address"
        }
      ],
      "payable": false,
      "stateMutability": "view",
      "type": "function"
    },
    {
      "constant": true,
      "inputs": [],
      "name": "totalSupply",
      "outputs": [
        {
          "internalType": "uint256",
          "name": "",
          "type": "uint256"
        }
      ],
      "payable": false,
      "stateMutability": "view",
      "type": "function"
    },
    {
      "constant": false,
      "inputs": [
        {
          "internalType": "address",
          "name": "recipient",
          "type": "address"
        },
        {
          "internalType": "uint256",
          "name": "amount",
          "type": "uint256"
        }
      ],
      "name": "transfer",
      "outputs": [
        {
          "internalType": "bool",
          "name": "",
          "type": "bool"
        }
      ],
      "payable": false,
      "stateMutability": "nonpayable",
      "type": "function"
    },
    {
      "constant": false,
      "inputs": [
        {
          "internalType": "address",
          "name": "sender",
          "type": "address"
        },
        {
          "internalType": "address",
          "name": "recipient",
          "type": "address"
        },
        {
          "internalType": "uint256",
          "name": "amount",
          "type": "uint256"
        }
      ],
      "name": "transferFrom",
      "outputs": [
        {
          "internalType": "bool",
          "name": "",
          "type": "bool"
        }
      ],
      "payable": false,
      "stateMutability": "nonpayable",
      "type": "function"
    },
    {
      "constant": false,
      "inputs": [
        {
          "internalType": "address",
          "name": "_owner",
          "type": "address"
        }
      ],
      "name": "transferOwnership",
      "outputs": [],
      "payable": false,
      "stateMutability": "nonpayable",
      "type": "function"
    },
    {
      "constant": false,
      "inputs": [
        {
          "internalType": "address",
          "name": "_strategy",
          "type": "address"
        }
      ],
      "name": "updateStrategy",
      "outputs": [],
      "payable": false,
      "stateMutability": "nonpayable",
      "type": "function"
    }
  ],
  "bytecode": "0x60806040523480156200001157600080fd5b506040516200205a3803806200205a833981810160405260a08110156200003757600080fd5b815160208301516040808501805191519395929483019291846401000000008211156200006357600080fd5b9083019060208201858111156200007957600080fd5b82516401000000008111828201881017156200009457600080fd5b82525081516020918201929091019080838360005b83811015620000c3578181015183820152602001620000a9565b50505050905090810190601f168015620000f15780820380516001836020036101000a031916815260200191505b50604052602001805160405193929190846401000000008211156200011557600080fd5b9083019060208201858111156200012b57600080fd5b82516401000000008111828201881017156200014657600080fd5b82525081516020918201929091019080838360005b83811015620001755781810151838201526020016200015b565b50505050905090810190601f168015620001a35780820380516001836020036101000a031916815260200191505b50604081815260209283015163313ce56760e01b8352905190945086935085926001600160a01b038a169263313ce5679260048083019392829003018186803b158015620001f057600080fd5b505afa15801562000205573d6000803e3d6000fd5b505050506040513d60208110156200021c57600080fd5b5051825162000233906003906020860190620002bd565b50815162000249906004906020850190620002bd565b50600580546001600160a01b03998a16620100000262010000600160b01b031961ff001960ff90951660ff19909316929092179390931661010017169190911790555050600680549486166001600160a01b0319958616179055600780549190951693169290921790925550620003629050565b828054600181600116156101000203166002900490600052602060002090601f016020900481019282601f106200030057805160ff191683800117855562000330565b8280016001018555821562000330579182015b828111156200033057825182559160200191906001019062000313565b506200033e92915062000342565b5090565b6200035f91905b808211156200033e576000815560010162000349565b90565b611ce880620003726000396000f3fe608060405234801561001057600080fd5b50600436106101985760003560e01c806395d89b41116100e3578063b84c82461161008c578063dd62ed3e11610066578063dd62ed3e146105bc578063f2fde38b146105ea578063fc0c546a1461061057610198565b8063b84c82461461044a578063c47f0027146104f0578063daccaf631461059657610198565b8063a59f3e0c116100bd578063a59f3e0c146103f9578063a8c62e7614610416578063a9059cbb1461041e57610198565b806395d89b41146103bd578063a0e4af9a146103c5578063a457c2d7146103cd57610198565b8063395093511161014557806370a082311161011f57806370a08231146103475780637ef6b6ad1461036d5780638da5cb5b1461039957610198565b806339509351146102f657806346568be91461032257806367dfd4c91461032a57610198565b806323b872dd1161017657806323b872dd1461027457806328770ef7146102aa578063313ce567146102d857610198565b806306fdde031461019d578063095ea7b31461021a57806318160ddd1461025a575b600080fd5b6101a5610618565b6040805160208082528351818301528351919283929083019185019080838360005b838110156101df5781810151838201526020016101c7565b50505050905090810190601f16801561020c5780820380516001836020036101000a031916815260200191505b509250505060405180910390f35b6102466004803603604081101561023057600080fd5b506001600160a01b0381351690602001356106af565b604080519115158252519081900360200190f35b6102626106cc565b60408051918252519081900360200190f35b6102466004803603606081101561028a57600080fd5b506001600160a01b038135811691602081013590911690604001356106d2565b6102d6600480360360408110156102c057600080fd5b506001600160a01b03813516906020013561075f565b005b6102e0610818565b6040805160ff9092168252519081900360200190f35b6102466004803603604081101561030c57600080fd5b506001600160a01b038135169060200135610821565b6102d6610875565b6102d66004803603602081101561034057600080fd5b5035610984565b6102626004803603602081101561035d57600080fd5b50356001600160a01b0316610bfc565b6102d66004803603604081101561038357600080fd5b506001600160a01b038135169060200135610c17565b6103a1610cb4565b604080516001600160a01b039092168252519081900360200190f35b6101a5610cc3565b6102d6610d24565b610246600480360360408110156103e357600080fd5b506001600160a01b038135169060200135610df6565b6102d66004803603602081101561040f57600080fd5b5035610e64565b6103a1611013565b6102466004803603604081101561043457600080fd5b506001600160a01b038135169060200135611022565b6102d66004803603602081101561046057600080fd5b81019060208101813564010000000081111561047b57600080fd5b82018360208201111561048d57600080fd5b803590602001918460018302840111640100000000831117156104af57600080fd5b91908080601f016020809104026020016040519081016040528093929190818152602001838380828437600092019190915250929550611036945050505050565b6102d66004803603602081101561050657600080fd5b81019060208101813564010000000081111561052157600080fd5b82018360208201111561053357600080fd5b8035906020019184600183028401116401000000008311171561055557600080fd5b91908080601f0160208091040260200160405190810160405280939291908181526020018383808284376000920191909152509295506110a0945050505050565b6102d6600480360360208110156105ac57600080fd5b50356001600160a01b031661110a565b610262600480360360408110156105d257600080fd5b506001600160a01b038135811691602001351661119b565b6102d66004803603602081101561060057600080fd5b50356001600160a01b03166111c6565b6103a1611257565b60088054604080516020601f60026000196101006001881615020190951694909404938401819004810282018101909252828152606093909290918301828280156106a45780601f10610679576101008083540402835291602001916106a4565b820191906000526020600020905b81548152906001019060200180831161068757829003601f168201915b505050505090505b90565b60006106c36106bc61126c565b8484611270565b50600192915050565b60025490565b60006106df84848461135c565b610755846106eb61126c565b61075085604051806060016040528060288152602001611bd3602891396001600160a01b038a1660009081526001602052604081209061072961126c565b6001600160a01b03168152602081019190915260400160002054919063ffffffff6114b816565b611270565b5060019392505050565b6007546001600160a01b031633146107b6576040805162461bcd60e51b815260206004820152601560248201527437b7363ca7bbb732b91d103737ba1037bbb732b21760591b604482015290519081900360640190fd5b816001600160a01b031663a59f3e0c826040518263ffffffff1660e01b815260040180828152602001915050600060405180830381600087803b1580156107fc57600080fd5b505af1158015610810573d6000803e3d6000fd5b505050505050565b60055460ff1690565b60006106c361082e61126c565b84610750856001600061083f61126c565b6001600160a01b03908116825260208083019390935260409182016000908120918c16815292529020549063ffffffff61154f16565b6007546001600160a01b031633146108cc576040805162461bcd60e51b815260206004820152601560248201527437b7363ca7bbb732b91d103737ba1037bbb732b21760591b604482015290519081900360640190fd5b600554600654604080517f095ea7b30000000000000000000000000000000000000000000000000000000081526001600160a01b03928316600482015271ffffffffffffffffffffffffffffffffffff60248201529051620100009093049091169163095ea7b3916044808201926020929091908290030181600087803b15801561095657600080fd5b505af115801561096a573d6000803e3d6000fd5b505050506040513d602081101561098057600080fd5b5050565b8061098e33610bfc565b10156109cb5760405162461bcd60e51b815260040180806020018281038252602f815260200180611ba4602f913960400191505060405180910390fd5b8015610bf957600554604080516370a0823160e01b815230600482015290516000926201000090046001600160a01b0316916370a08231916024808301926020929190829003018186803b158015610a2257600080fd5b505afa158015610a36573d6000803e3d6000fd5b505050506040513d6020811015610a4c57600080fd5b5051600654604080517f67dfd4c90000000000000000000000000000000000000000000000000000000081526004810186905290519293506001600160a01b03909116916367dfd4c99160248082019260009290919082900301818387803b158015610ab757600080fd5b505af1158015610acb573d6000803e3d6000fd5b5050600554604080516370a0823160e01b8152306004820152905160009450620100009092046001600160a01b031692506370a08231916024808301926020929190829003018186803b158015610b2157600080fd5b505afa158015610b35573d6000803e3d6000fd5b505050506040513d6020811015610b4b57600080fd5b50519050610b5933846115b0565b6005546201000090046001600160a01b031663a9059cbb33610b7b84866116ac565b6040518363ffffffff1660e01b815260040180836001600160a01b03166001600160a01b0316815260200182815260200192505050602060405180830381600087803b158015610bca57600080fd5b505af1158015610bde573d6000803e3d6000fd5b505050506040513d6020811015610bf457600080fd5b505050505b50565b6001600160a01b031660009081526020819052604090205490565b6007546001600160a01b03163314610c6e576040805162461bcd60e51b815260206004820152601560248201527437b7363ca7bbb732b91d103737ba1037bbb732b21760591b604482015290519081900360640190fd5b816001600160a01b03166367dfd4c9826040518263ffffffff1660e01b815260040180828152602001915050600060405180830381600087803b1580156107fc57600080fd5b6007546001600160a01b031681565b60098054604080516020601f60026000196101006001881615020190951694909404938401819004810282018101909252828152606093909290918301828280156106a45780601f10610679576101008083540402835291602001916106a4565b6007546001600160a01b03163314610d7b576040805162461bcd60e51b815260206004820152601560248201527437b7363ca7bbb732b91d103737ba1037bbb732b21760591b604482015290519081900360640190fd5b600554600654604080517f095ea7b30000000000000000000000000000000000000000000000000000000081526001600160a01b0392831660048201526000602482018190529151620100009094049092169263095ea7b3926044808201936020939283900390910190829087803b15801561095657600080fd5b60006106c3610e0361126c565b8461075085604051806060016040528060258152602001611c8f6025913960016000610e2d61126c565b6001600160a01b03908116825260208083019390935260409182016000908120918d1681529252902054919063ffffffff6114b816565b600554610e82906201000090046001600160a01b03163330846116ee565b600654604080516370a0823160e01b815230600482015290516000926001600160a01b0316916370a08231916024808301926020929190829003018186803b158015610ecd57600080fd5b505afa158015610ee1573d6000803e3d6000fd5b505050506040513d6020811015610ef757600080fd5b5051600654604080517fa59f3e0c0000000000000000000000000000000000000000000000000000000081526004810186905290519293506001600160a01b039091169163a59f3e0c9160248082019260009290919082900301818387803b158015610f6257600080fd5b505af1158015610f76573d6000803e3d6000fd5b5050600654604080516370a0823160e01b81523060048201529051600094506001600160a01b0390921692506370a08231916024808301926020929190829003018186803b158015610fc757600080fd5b505afa158015610fdb573d6000803e3d6000fd5b505050506040513d6020811015610ff157600080fd5b5051905061100e33611009838563ffffffff6116ac16565b61177c565b505050565b6006546001600160a01b031681565b60006106c361102f61126c565b848461135c565b6007546001600160a01b0316331461108d576040805162461bcd60e51b815260206004820152601560248201527437b7363ca7bbb732b91d103737ba1037bbb732b21760591b604482015290519081900360640190fd5b8051610980906009906020840190611a7e565b6007546001600160a01b031633146110f7576040805162461bcd60e51b815260206004820152601560248201527437b7363ca7bbb732b91d103737ba1037bbb732b21760591b604482015290519081900360640190fd5b8051610980906008906020840190611a7e565b6007546001600160a01b03163314611161576040805162461bcd60e51b815260206004820152601560248201527437b7363ca7bbb732b91d103737ba1037bbb732b21760591b604482015290519081900360640190fd5b600680547fffffffffffffffffffffffff0000000000000000000000000000000000000000166001600160a01b0392909216919091179055565b6001600160a01b03918216600090815260016020908152604080832093909416825291909152205490565b6007546001600160a01b0316331461121d576040805162461bcd60e51b815260206004820152601560248201527437b7363ca7bbb732b91d103737ba1037bbb732b21760591b604482015290519081900360640190fd5b600780547fffffffffffffffffffffffff0000000000000000000000000000000000000000166001600160a01b0392909216919091179055565b6005546201000090046001600160a01b031681565b3390565b6001600160a01b0383166112b55760405162461bcd60e51b8152600401808060200182810382526024815260200180611c416024913960400191505060405180910390fd5b6001600160a01b0382166112fa5760405162461bcd60e51b8152600401808060200182810382526022815260200180611b5c6022913960400191505060405180910390fd5b6001600160a01b03808416600081815260016020908152604080832094871680845294825291829020859055815185815291517f8c5be1e5ebec7d5bd14f71427d1e84f3dd0314c0f7b2291e5b200ac8c7c3b9259281900390910190a3505050565b6001600160a01b0383166113a15760405162461bcd60e51b8152600401808060200182810382526025815260200180611c1c6025913960400191505060405180910390fd5b6001600160a01b0382166113e65760405162461bcd60e51b8152600401808060200182810382526023815260200180611b176023913960400191505060405180910390fd5b61142981604051806060016040528060268152602001611b7e602691396001600160a01b038616600090815260208190526040902054919063ffffffff6114b816565b6001600160a01b03808516600090815260208190526040808220939093559084168152205461145e908263ffffffff61154f16565b6001600160a01b038084166000818152602081815260409182902094909455805185815290519193928716927fddf252ad1be2c89b69c2b068fc378daa952ba7f163c4a11628f55a4df523b3ef92918290030190a3505050565b600081848411156115475760405162461bcd60e51b81526004018080602001828103825283818151815260200191508051906020019080838360005b8381101561150c5781810151838201526020016114f4565b50505050905090810190601f1680156115395780820380516001836020036101000a031916815260200191505b509250505060405180910390fd5b505050900390565b6000828201838110156115a9576040805162461bcd60e51b815260206004820152601b60248201527f536166654d6174683a206164646974696f6e206f766572666c6f770000000000604482015290519081900360640190fd5b9392505050565b6001600160a01b0382166115f55760405162461bcd60e51b8152600401808060200182810382526021815260200180611bfb6021913960400191505060405180910390fd5b61163881604051806060016040528060228152602001611b3a602291396001600160a01b038516600090815260208190526040902054919063ffffffff6114b816565b6001600160a01b038316600090815260208190526040902055600254611664908263ffffffff6116ac16565b6002556040805182815290516000916001600160a01b038516917fddf252ad1be2c89b69c2b068fc378daa952ba7f163c4a11628f55a4df523b3ef9181900360200190a35050565b60006115a983836040518060400160405280601e81526020017f536166654d6174683a207375627472616374696f6e206f766572666c6f7700008152506114b8565b604080516001600160a01b0385811660248301528416604482015260648082018490528251808303909101815260849091019091526020810180517bffffffffffffffffffffffffffffffffffffffffffffffffffffffff167f23b872dd0000000000000000000000000000000000000000000000000000000017905261177690859061186c565b50505050565b6001600160a01b0382166117d7576040805162461bcd60e51b815260206004820152601f60248201527f45524332303a206d696e7420746f20746865207a65726f206164647265737300604482015290519081900360640190fd5b6002546117ea908263ffffffff61154f16565b6002556001600160a01b038216600090815260208190526040902054611816908263ffffffff61154f16565b6001600160a01b0383166000818152602081815260408083209490945583518581529351929391927fddf252ad1be2c89b69c2b068fc378daa952ba7f163c4a11628f55a4df523b3ef9281900390910190a35050565b61187e826001600160a01b0316611a42565b6118cf576040805162461bcd60e51b815260206004820152601f60248201527f5361666545524332303a2063616c6c20746f206e6f6e2d636f6e747261637400604482015290519081900360640190fd5b60006060836001600160a01b0316836040518082805190602001908083835b6020831061192b57805182527fffffffffffffffffffffffffffffffffffffffffffffffffffffffffffffffe090920191602091820191016118ee565b6001836020036101000a0380198251168184511680821785525050505050509050019150506000604051808303816000865af19150503d806000811461198d576040519150601f19603f3d011682016040523d82523d6000602084013e611992565b606091505b5091509150816119e9576040805162461bcd60e51b815260206004820181905260248201527f5361666545524332303a206c6f772d6c6576656c2063616c6c206661696c6564604482015290519081900360640190fd5b80511561177657808060200190516020811015611a0557600080fd5b50516117765760405162461bcd60e51b815260040180806020018281038252602a815260200180611c65602a913960400191505060405180910390fd5b6000813f7fc5d2460186f7233c927e7db2dcc703c0e500b653ca82273b7bfad8045d85a470818114801590611a7657508115155b949350505050565b828054600181600116156101000203166002900490600052602060002090601f016020900481019282601f10611abf57805160ff1916838001178555611aec565b82800160010185558215611aec579182015b82811115611aec578251825591602001919060010190611ad1565b50611af8929150611afc565b5090565b6106ac91905b80821115611af85760008155600101611b0256fe45524332303a207472616e7366657220746f20746865207a65726f206164647265737345524332303a206275726e20616d6f756e7420657863656564732062616c616e636545524332303a20617070726f766520746f20746865207a65726f206164647265737345524332303a207472616e7366657220616d6f756e7420657863656564732062616c616e63656c656176653a2062616c616e636520746f207769746864726177206c6172676572207468616e2062616c616e63652e45524332303a207472616e7366657220616d6f756e74206578636565647320616c6c6f77616e636545524332303a206275726e2066726f6d20746865207a65726f206164647265737345524332303a207472616e736665722066726f6d20746865207a65726f206164647265737345524332303a20617070726f76652066726f6d20746865207a65726f20616464726573735361666545524332303a204552433230206f7065726174696f6e20646964206e6f74207375636365656445524332303a2064656372656173656420616c6c6f77616e63652062656c6f77207a65726fa265627a7a723158203bf368b9cdad3d187383d748c885d9402419caff9fba8c57cf1e73fde58e839664736f6c63430005110032",
  "linkReferences": {},
  "deployedLinkReferences": {}
}